:020000040800F2
:1000000000400020BD160008091700084903000839
:1000100051030008590300086103000800000000B4
:10002000000000000000000000000000B1380008DF
:1000300009170008000000006D380008AD370008FF
:100040000917000809170008091700080917000810
:100050000917000809170008091700080917000800
:1000600009170008091700080917000809170008F0
:1000700009170008091700080917000809170008E0
:1000800009170008091700080917000841030008AC
:100090004502000809170008450300080917000871
:1000A00009170008091700080917000809170008B0
:1000B00009170008000000000000000009170008F0
:1000C00009170008091700080917000800000000B8
:1000D0000917000809170008091700080917000880
:1000E0000917000809170008091700080000000098
:1000F0000000000000000000000000000000000000
:1001000000000000000000000000000009170008C7
:1001100000000000000000000917000800000000B7
:1001200000000000000000000000000000000000CF
:1001300000000000000000000000000000000000BF
:10014000091700080917000800000000000000005F
:10015000000000000000000000000000000000009F
:1001600009170008091700080917000809170008EF
:100170000917000800000000000000000000000057
:10018000000000000917000810B5054C237833B9AA
:10019000044B13B10448AFF300800123237010BD5A
:1001A0004813002000000000E85D000808B5034B7C
:1001B0001BB103490348AFF3008008BD00000000F5
:1001C0004C130020E85D0008A3F5803A704700BF9B
:1001D000174B002B08BF134B9D46FFF7F5FF00217F
:1001E0008B460F461348144A121A04F0BFFE0E4BFA
:1001F000002B00D098470D4B002B00D098470020D3
:10020000002104000D000D48002802D00C48AFF377
:10021000008004F01DFE2000290003F0D5F804F052
:1002200039FC00BF0000080000000000790E000843
:1002300000400020481300200817002000000000A4
:1002400000000000384B5A69D20770B52ED59D6862
:10025000364C996836489A6805EA0406AC4301EAC8
:10026000000104BF01249C6022F06F4281422E4BAA
:1002700008BF4FF4807022F47E0208BF9860120C11
:100280002C481204824204BF4FF480309860274B00
:100290009E4205D0264B994202D0264B9A4205D168
:1002A000254B264A1B681068012198471E4BDA68C7
:1002B0005B69960707D09D0705D51F4B1F4A1B6832
:1002C000106800219847184B99695A695B698C0737
:1002D00009D5900507D5190405D5174B174A1B6892
:1002E000106805219847104A95695469526915F0BC
:1002F000040504F4806408D03CB1120405D50E4B0B
:100300000E4A1B68106807219847074B5B6955B177
:100310004CB11B0407D5084B084A1B681068BDE8A0
:1003200070400221184770BD0064004001000004C5
:100330000001000800000110681300206413002071
:10034000FFF780BFFFF77EBF4FF0100300F00CB83F
:100350004FF0200300F008B84FF0300300F004B86D
:100360004FF0400300F000B8EFF308804FF00401B5
:1003700072460A4201D0EFF309809C46254B19686A
:1003800002680A60043142680A60043182680A60C7
:100390000431C2680A600431F0C147460F6004317D
:1003A0004F460F60043157460F6004315F460F60BF
:1003B000043102690A60083142690A6004318269C5
:1003C0000A600431C2690A600431034620334FF4E5
:1003D0000076324200D0043375464FF010063542A5
:1003E00000D148330C46103C2360EFF309820A60C9
:1003F0000431EFF308820A60043172460A60043166
:10040000EFF314820A606046024B196800F0A2FA0A
:10041000FEE70000F45A000800207047036801223C
:100420001B6900211847036800221B691146184701
:100430006FF01500704703681B69184703689B69D4
:10044000184703689B6A184700290CBF6FF0180013
:1004500000207047012070476FF0150070476FF063
:1004600015007047704730B591FAA1F391FAA1F1E8
:10047000B3FA83F304685B000325B1FA81F105FA4E
:1004800003F3490024EA03038A401343036030BDA9
:100490007FB5224B05283ED8DFE800F003111C276A
:1004A0003D325A6942F400325A615B6903F4003309
:1004B0000193019B4FF0904007B05DF804FB5A692F
:1004C000174842F480225A615B6903F48023029347
:1004D000029BF1E75A69134842F400225A615B69B2
:1004E00003F400230393039BE6E75A690E4842F4A2
:1004F00080125A615B6903F480130493049BDBE769
:100500005A690A4842F480025A615B6903F4800325
:100510000593059BD0E7064800F080F900100240E3
:100520000004004800080048000C0048001400487F
:100530001059000810B54FF47071044604F00F0410
:1005400000F0D6FE0120A04010BD00004B1C70B58D
:1005500004460E46018218D0C1F30310FFF798FF3E
:1005600005463046FFF7E6FF238A084A656103F037
:100570000F03206052F82330A36105F1100363607C
:1005800005F118032835A360E56070BD705C0008B4
:10059000B0F9100000F028BF0A46D0E905010AB9F9
:1005A000FFF761BF0122FBE708B502F065F8002004
:1005B00008BD000008B50A4B1B684BB100F050FEA7
:1005C00000F03CFE4FF47A72002304F0E1F808BD1D
:1005D0004FF08043586A4FF47A73B0FBF3F0F6E7BC
:1005E000EC13002003460122D3E84F0FC3E8412F4C
:1005F000C0B20029F8D17047D0E84F3FC0E8421F91
:10060000D8B2704700B589B000F078F81D2101A874
:1006100000F00DFA104E114D0424039B019A1A604C
:10062000304600F02BFE049B019A1A60304600F021
:1006300025FE013CF1D10424039B019A1A6028464F
:1006400000F01CFE049B019A1A60284600F016FE7A
:10065000013CF1D1E0E700BFF0490200801A06003A
:1006600007B5014600220190022000F04BFB00F08C
:1006700045F80199084604F012FF0199024602204C
:1006800000F040FB03B05DF804EB00F041B800005F
:1006900000B5A3B002460B4601A8842104F034FF44
:1006A000832806D9074B1A681B79CDF883208DF86B
:1006B0008730002802DD01A8FFF7D2FF23B05DF8E4
:1006C00004FB00BF315900080FB407B504A951F865
:1006D000040B0191FFF7DCFF03B05DF804EB04B0FD
:1006E0007047EFF31080C04300F001007047EFF354
:1006F0000580003818BF01207047000008B500F0E1
:1007000013F8024A13680133136008BD6C1300200C
:10071000044A136823B1013B13600BB900F016B80B
:10072000704700BF6C130020EFF3108372B6054AC8
:10073000117831B90449DB4303F001030B70012345
:10074000137070477113002070130020034B0022B8
:100750001A70034B1B7803B162B670477113002007
:100760007013002008B50B48FFF73CFF28B1FFF7D6
:10077000C5FFBFF34F8F20BFFDE7FFF7B8FF08B1FC
:10078000FFF740FFFFF7ADFF0028F9D0012004F08C
:1007900081F900BFB413002070B51B4C8EB034EA51
:1007A000200428BF04460D4616460021282204A82E
:1007B00004F0DCFBCDE901460395FFF79FFF134AE8
:1007C00013680133012B136009D101AD0FCD104C1B
:1007D0000FC40FCD0FC40FCD0FC42B68236001AC25
:1007E0000FCC0C4D0FC50FCC0FC50FCC0FC5236818
:1007F0002B60094B1B6813B1A5F130009847FFF738
:1008000087FF00200EB070BD0101FF80741300202F
:1008100080130020B8130020781300200FB407B510
:1008200001210648CDF804E0FFF7E6FE019A0146F3
:1008300010B90348FFF7B0FFFFF794FF7C130020C7
:100840000001FF8008B5044601210648764615469A
:10085000FFF7D2FE20B9324629462046FFF79CFF1B
:10086000FFF780FF7C130020F0B52C4E2C4F85B095
:1008700000243546214656F8042B38460134FFF74C
:1008800023FF0D2CF6D1AB6C02936B6C01932B6C98
:10089000244C0093D5E90E23696B2348FFF714FF1E
:1008A00021682248FFF710FFE16AA26AA36AA06AE2
:1008B000266BE76B000CCDE901670090C3F30723BB
:1008C0001B48D2B2FFF700FFA36A1E0603D5616B77
:1008D0001848FFF7F9FEA36A180403D5A16B164860
:1008E000FFF7F2FEEB6C190712D51448FFF7ECFE88
:1008F0002B6DDA070FD51248FFF7E6FEEB6C5B07AE
:100900004CBF1048104805B0BDE8F040FFF7DCBE12
:100910000E48FFF7D9FE0E48EEE700BF5014002046
:100920003659000800ED00E04459000893590008CA
:10093000A1590008F0590008FE5900080C5A000897
:100940001B5A00084B5A0008575A00083B5A000827
:10095000285A000813B504461548FFF7B5FE302C99
:1009600017D0402C1AD0202C1DD11248124CFFF762
:10097000ABFE1248FFF7A8FEFFF776FF1048FFF71F
:10098000A3FE104A104900230093D26B2046FFF7C4
:1009900059FF0E480E4CFFF797FEEAE70D480E4C44
:1009A000FFF792FEE5E70D480D4CFFF78DFEE0E7FF
:1009B000635A00088C5A00083E01FF80B95A0008AB
:1009C000C45A000850140020E35A00089B5A00083B
:1009D0003F01FF80A45A00084001FF80AF5A000881
:1009E0003D01FF8038B5036804460D465AB1826860
:1009F000136020460121FFF7CFFD29462046BDE8C0
:100A00003840FFF7C5BDC268F2E737B50D4604466A
:100A10000192FFF79BFD013507D0019A0021204686
:100A200003B0BDE83040FFF7DDBF03B030BD0022AA
:100A3000FFF7EBBF08B501F0D7FD00F067FE01F04E
:100A4000C5FD01F0D1FD024B01221A6008BD00BFB7
:100A5000EC1300201FB5431C10D105B05DF804FB5A
:100A600083420AD18968039000F042FC0398002178
:100A700005B05DF804EB00F0B7BC0C31B1F9003003
:100A80005A1CEDD100230246009302481946FFF795
:100A9000D9FE00BF30010180884207B502460AD066
:100AA000431C08D0013105D00023054800931946A6
:100AB000FFF7C8FE0146084603B05DF804FB00BF1F
:100AC00030010180B1F900305A1C01D1184670473D
:100AD000834201D1486870470C31F3E7421C13B5DB
:100AE00004460AD0FFF7EEFF431C06D1002304485A
:100AF000009322461946FFF7A5FE02B010BD00BFC5
:100B0000300101806FF01C0070476FF015007047D6
:100B1000012070470020704770470000F8B5074E6D
:100B200015460C468F18BC4205D014F8011B304600
:100B300000F0ACFDF7E72846F8BD00BFA414002084
:100B400038B511F001048DB205D0084800F090FCD2
:100B5000041E18BF0124EB0605D5044800F098FCDC
:100B600008B144F01004204638BD00BFA414002092
:100B700010B5044604F094F9204610BD10B50C469B
:100B80002AB1044800F06CFD2070012010BD104611
:100B9000FCE700BFA414002038B51D46074B0360D6
:100BA000074B1B68044633B9064800F0C7FC0548EC
:100BB000294600F0A9FC204638BD00BF005B0008B4
:100BC00038140020A4140020002070470020704733
:100BD000074A084913681844884289BF064B1060C9
:100BE0000C224FF0FF308CBF1A601846704700BFD0
:100BF0008C020020003C00200417002001207047D8
:100C00007047704708B5FFF7FBFF08BD08B5FFF751
:100C1000F8FF08BD037803F00303012B09D0037824
:100C200003F00302012A04D043F002030370012001
:100C3000704700207047037823F0030343F001035B
:100C4000037070473F2870B504462FDC184D55F8E7
:100C500020305A1C13D1022811DCFFF7B7FF0346DE
:100C600058B92046FFF7B0FF034630B9114E33782C
:100C7000BFF35B8FDB0704D50F4B45F824301846D4
:100C800070BD3046FFF7C6FF0028F5D04FF416536D
:100C9000032202210848FFF77FFF3046FFF7CBFF12
:100CA000064A07490448FFF7A9FFE5E70023E6E7FE
:100CB0008C010020F0130020F41300208801002094
:100CC000190B000838B50546FFF7BCFF0B4B002495
:100CD00043F8254030B903F0D7FE092303604FF0F5
:100CE000FF3038BD03685B699847051E04DA03F0DE
:100CF000CBFE6D420560F2E72046F2E78C01002052
:100D0000FFF7E0BF13B5CDE90021FFF79BFFDDE959
:100D1000002140B903F0B8FE092303604FF0FF340F
:100D2000204602B010BD0368DB689847041EF7DA5E
:100D300003F0AAFE64420460F0E708B5131E07DA68
:100D400003F0A2FE162303604FF0FF33184608BDE0
:100D5000FCD0FFF7D7FF40EAE073F7E713B5CDE922
:100D60000021FFF76FFFDDE9002140B903F08CFEA1
:100D7000092303604FF0FF34204602B010BD036822
:100D80009B689847041EF7DA03F07EFE6442046015
:100D9000F0E7002A08B503DBBDE80840FFF7DEBF37
:100DA00003F072FE162303604FF0FF3008BD13B549
:100DB000CDE90021FFF746FFDDE9002140B903F04E
:100DC00063FE092303604FF0FF34204602B010BDDC
:100DD00003681B699847041EF7DA03F055FE644266
:100DE0000460F0E7FFF7E3BF10B5FFF72BFF30B962
:100DF00003F04AFE092303604FF0FF3010BD036883
:100E00009B699847041E04DA03F03EFE64420460C6
:100E1000F2E70020F2E700000A4D08B52B6804460F
:100E2000986803F00DFF2B68D86803F009FF0120D4
:100E3000FFF7DAFF0220FFF7D7FF0CB1FFF7E2FB65
:100E4000FEE700BFD412002070470000084B09499C
:100E500098684FF00053C21802F16042126843F8DC
:100E6000042B8B42F7D1024B4FF000529A6070472F
:100E700000ED00E08801002008B5FFF7E7FFFFF76D
:100E8000D9FD01F04DFCFFF7DFFF08BD2DE9F74F5D
:100E9000446894F83A100646002955D1016849681B
:100EA00088477168096A814205464DD0206AE16829
:100EB000A6682562281A0140384886428C464FF0C1
:100EC000000E39D094F83BB0D4E90A5A0027A1FBB0
:100ED0000001BBF1000F46D0CBF1200801FA08F861
:100EE00020FA0BFCABF1200E21FA0EFE4CEA080CA6
:100EF0004CEA0E0C2D1821FA0BFEABF120094AEB3F
:100F0000010ACBF120080EFA0BF10CFA09F941EABB
:100F100009012CFA08F80CFA0BF02B1A41EA080127
:100F200000936AEB01030193DDE90023BB4208BF94
:100F3000B2420CD2C4E90A23D4E90C0110EB0C0034
:100F400041EB0E01C4E90C0103B0BDE8F08F009B3A
:100F50001CF1010C4EF1000E9A1B019B63EB070381
:100F6000C4E90A23E8E732463B4603F011FC12EBE2
:100F7000050843EB0A09B94508BFB04584468E46CB
:100F800002D2C4E90A89D7E710F1010C41F1000E41
:100F9000B8EB060269EB0703E2E700BF40420F002F
:100FA000824206D98A420BD9884294BF0020012090
:100FB0007047884206D98A428CBF002001207047C2
:100FC00001207047002070472DE9F74FD0F80480CA
:100FD00098F83A300746002B40F0818098F8393075
:100FE000002B7CD1FFF752FF7E683A68736801924C
:100FF000002B66D0D6E90C01D3E90023994208BF43
:10100000904205D3019B5B6903B0BDE8F04F1847E0
:10101000141A63EB0105D6E90623AB4208BFA242CE
:10102000D6F8109006D3B2682E4B9A4219D1A1453A
:1010300028BFA146326A019B9144F2681B6909EA04
:1010400002021046019298473B685B689847019AF4
:101050000146D8F82000FFF7A3FF00283FD03B68E7
:10106000D1E796F83B30EBB1A3F1200CC3F120029D
:1010700024FA02F204FA03F005FA03F104FA0CFC74
:10108000194C41EA0C0111430019164A4FF00004B3
:101090004FF0000344EB010103F07AFB814528BFC8
:1010A0008146C7E71048A2FB04AB02FB05BB1AEB65
:1010B00000004FF000010B4A4FF000034BEB010121
:1010C000EAE7D8F81030D8F82000D8F80C201844F7
:1010D000019B1B69104003B0BDE8F04F184703B0F7
:1010E000BDE8F08F40420F003F420F002DE9F04F66
:1010F000436893F8382085B00546002A63D193F8F9
:101100003A30002B5FD103681B6898472B68DB6976
:10111000984703682BB92D4800931A461946FFF7E4
:1011200091FB1F21012202FA01F4A3425FFA81FA26
:1011300002D00139F7D18A464668321F1C2A05D9E8
:101140000023234800931A461946E8E71C4614F189
:10115000FF384FF000031F494FF0070743F1FF39F5
:101160009740C1FB078922464046494603F010FBE1
:101170006B682A6803934FF00008C3E9008852683F
:10118000894683469047039B0122186202FA06F6BD
:101190006B6800210020013EC3E90A01C3E90C018C
:1011A000C3E903672846C3E906B99C6083F83BA0FE
:1011B0001A8783F83A80FFF769FE284605B0BDE834
:1011C000F04FFFF701BF05B0BDE8F08F0E010480BE
:1011D0000501048040420F0070B50446FFF78EFA07
:1011E0002368DB689847636893F83A201AB1BDE832
:1011F0007040FFF78DBA012283F8392063685B687D
:10120000A3B12046FFF742FE65686E68D5E90C0180
:10121000D6E90023994208BF904207D3F3686B6078
:101220002B68002BEAD0B0689847E7E76368002294
:1012300083F839202046FFF7C7FED8E738B50446C3
:10124000FFF754FFFFF75AFA2046FFF71FFE6368C7
:10125000D3E90C45FFF75CFA2046294638BD7047B4
:1012600000487047545B0008024B1B680BB10248F2
:101270001847704790020020545B00084FF08043ED
:10128000596A5A6A521A8242FBD3704730B591FAB2
:10129000A1F391FAA1F1B3FA83F384685B0003250B
:1012A000B1FA81F105FA03F3490024EA03038A4005
:1012B0001343836030BD30B591FAA1F391FAA1F1E7
:1012C000B3FA83F3C4685B000325B1FA81F105FA30
:1012D00003F3490024EA03038A401343C36030BD8B
:1012E000012A02D0022A18BF0022FFF7E4BF000043
:1012F0002DE9F84300F00F023A4B1FFA80F9C0F3D2
:10130000031053F82270C1F3831801F007060D464D
:10131000FFF7BEF8B8F10F0F0CBF03224246394663
:101320000446FFF7B3FF022E28D0032E58D0711EBB
:101330004B424B4197FAA7F2B2FA82F2216852006F
:10134000032000FA02F221EA020197FAA7F2B2FAA8
:1013500082F252009340013E0B43012E236005D8D8
:1013600063682A074CBF3B43BB436360C5F301126C
:1013700039462046BDE8F843FFF7B2BF19F0080F21
:10138000C5F3832217D03B0A93FAA3F1B1FA81F196
:10139000406A93FAA3F389004FF00F0CB3FA83F37A
:1013A0000CFA01F19B0020EA010102FA03F30B435E
:1013B00063620223BEE797FAA7F1B1FA81F1036AEB
:1013C00089000F2000FA01F123EA010197FAA7F33F
:1013D000B3FA83F39B0002FA03F30B432362E8E7BB
:1013E0003346A7E7705C000838B500F00F021F4BCA
:1013F000C0F3031053F822500C46FFF749F895FA52
:10140000A5F2B2FA82F35A0001680323934095FAD9
:10141000A5F2B2FA82F20B405200D340013B012BFD
:101420001AD8E31E022B436809D82B43032C4360D0
:101430001AD101222946BDE83840FFF751BF23EAFF
:101440000503012C4360F4D0022C0BD02946002266
:10145000BDE83840FFF72FBF04F0FD03012BE8D0B3
:10146000052CF1D10222E5E7052CEEE7705C0008BF
:10147000426870235343054AD358DA69120744BFC0
:1014800008221A62D869C0F340107047F014002097
:10149000426870235343034AD358D869C0F3C0103D
:1014A000704700BFF01400204168034670224A4391
:1014B000144910B41C68545050189A684260DA6895
:1014C00082601A69C2605A6902611A6A82610022E6
:1014D000A0F85220C261A0F85020A0F85A20A0F82D
:1014E0005820B3F91A20013205D108235DF8044BC6
:1014F000436100F0A9BFB3F9183001330CBF0423D6
:101500000C23F3E7F01400208160FFF7CDBF00004B
:10151000094B98420BD0A3F57443984209D003F5C8
:101520008063984214BF4FF0FF30022070470020C4
:1015300070470120704700BF00380140F0B50E46EB
:1015400085B03F49044630461546FFF7C7FA3D4986
:1015500007462846FFF7C2FA01463846FFF79CFACD
:10156000022E20600AD0032D08D035490220FFF753
:10157000B5FAB84242D13448FFF750F90127206844
:10158000324B98423CD103F558439A6942F4804269
:101590009A619B6903F480430193019BFFF7B8FFB5
:1015A000274960603046FFF755FA28462549FFF77E
:1015B00051FA701C03D001213046FFF715FF691C5A
:1015C00003D001212846FFF70FFF00234FF41652E6
:1015D000C4E90223C4E904332362268365832046D9
:1015E000FFF762FF4FB31A4B1A4801221A602146D7
:1015F0004C2205B0BDE8F04003F0AABC0027BEE7CE
:10160000154B98420ED003F580639842C6D1134B18
:10161000DA6942F48022DA61DB6903F48023039300
:10162000039BBBE70D4BDA6942F40032DA61DB69F8
:1016300003F400330293029BB0E705B0F0BD00BF96
:10164000F85B0008805B0008B05C000800380140CF
:1016500038140020A4140020004400400010024070
:1016600038B5456804462046FFF702FF0028FAD047
:101670007023054A6B43D358E268988C0AB9C0B20C
:1016800038BDC0F30800FBE7F014002070B54668D1
:1016900005460C462846FFF7FBFE0028FAD07023CB
:1016A000054A7343D358EA6812B9E4B21C8570BD89
:1016B000C4F30804FAE700BFF0140020DFF830D0CC
:1016C000002103E00B4B5B58435004310A480B4B9D
:1016D00042189A42F6D30A4A02E0002342F8043B39
:1016E000084B9A42F9D300F0E1FEFEF771FDFEE7E8
:1016F00000400020F45D000888010020481300200D
:101700004813002008170020FEE77047074A08B575
:10171000136843F010031360032000F009F80F2052
:10172000FEF742FFFFF7F1FF002008BD0020024056
:101730000749CA6822F4E0620302120403F4E0637A
:10174000120C134343F0BF6343F40033CB60704784
:1017500000ED00E00368DA072DE9F347054611D4F0
:101760002B689B0700F186802B681C0700F1EF8037
:101770002B68580700F12E81EA69002A40F0C581E4
:1017800000201FE0B24C636803F00C03042B07D069
:10179000636803F00C03082B17D16368DF0314D5CB
:1017A0004FF4003393FAA3F3B3FA83F3216803F001
:1017B0001F03012202FA03F30B42D1D06B68002B06
:1017C000CED1012002B0BDE8F0876A68B2F5803F53
:1017D00025D1236843F480332360E36AA96823F0AA
:1017E0000F030B43E36252B3FEF7E4FE4FF40036FF
:1017F000074696FAA6F6B6FA86F8002E14BF4346B8
:10180000202303F01F022168012393400B42A7D13C
:10181000FEF7D0FEC01B6428EFD90320D2E723686F
:1018200032B923F480332360236823F48023D3E781
:10183000B2F5A02FF5D143F480232360C9E7FEF76A
:10184000B9FE4FF40036074696FAA6F6B6FA86F8C1
:10185000002E14BF4346202303F01F0221680123FA
:1018600093400B423FF47CAFFEF7A4FEC01B6428FC
:10187000EED9D2E7764C636813F00C0F07D063689B
:1018800003F00C03082B1FD16368DE031CD4022372
:1018900093FAA3F3B3FA83F3216803F01F03012241
:1018A00002FA03F30B4202D02B69934289D12168DB
:1018B0006B69F82292FAA2F2B2FA82F221F0F801F0
:1018C00093400B4323604FE7012393FAA3F3B3FA4A
:1018D00083F303F184532A6903F584139B00D2B187
:1018E00001221A60FEF766FE0226074696FAA6F661
:1018F000B6FA86F8002E14BF4346202303F01F02D9
:101900002168012393400B42D1D1FEF753FEC01B47
:101910000228EFD981E700221A60FEF74BFE02266B
:10192000074696FAA6F6B6FA86F8002E14BF434686
:10193000202303F01F022168012393400B423FF450
:1019400013AFFEF737FEC01B0228EED965E7414A08
:10195000A9693F4C012393FAA3F3B3FA83F3134429
:101960009B00D9B101221A60FEF724FE0226074629
:1019700096FAA6F6B6FA86F8002E14BF4346202340
:1019800003F01F02616A012393400B427FF4F0AE23
:10199000FEF710FEC01B0228EED93EE700221A60B7
:1019A000FEF708FE0226074696FAA6F6B6FA86F86D
:1019B000002E14BF4346202303F01F02616A012357
:1019C00093400B423FF4D4AEFEF7F4FDC01B022857
:1019D000EED922E71E4CE369D90037D4E36943F01E
:1019E0008053E361E36903F080530193019B012776
:1019F000194E3368DA0531D5EB68012B3FD1236AE4
:101A000043F001032362FEF7D5FD4FF002080646BE
:101A100098FAA8F9B9FA89FA98FAA8F3002B00F015
:101A2000F080216AB9F1000F6BD05FFA8AF303F0FE
:101A30001F03012202FA03F30B425AD0002F3FF496
:101A40009BAEE36923F08053E36195E60027CFE77F
:101A5000001002402081901000700040336843F471
:101A600080733360FEF7A6FD80463368DB05C3D480
:101A7000FEF7A0FDA0EB08006428F6D9CDE653BB25
:101A8000236A23F001032362236A23F00403236201
:101A9000FEF790FD4FF00208064698FAA8F9B9FA49
:101AA00089FA98FAA8F3002B00F0AD80216AB9F109
:101AB000000F28D05FFA8AF303F01F03012202FA15
:101AC00003F30B42BAD0FEF775FD41F28833801B59
:101AD0009842E6D9A1E6052B236A03D143F004031B
:101AE00023628CE723F001032362236A23F00403BB
:101AF00088E7FEF75FFD41F28833801B98428BD95F
:101B00008BE6202393E72023D6E7404C636803F05D
:101B10000C03082B3FF455AE4FF0807393FAA3F3F8
:101B2000B3FA83F303F1845303F584139B00022A71
:101B30004FF000021A6049D1FEF73CFD4FF00076ED
:101B4000074696FAA6F6B6FA86F8002E14BF434664
:101B5000202303F01F022168012393400B422FD161
:101B6000D5E9081362680B4322F4741213436360CF
:101B70004FF0807393FAA3F3B3FA83F303F1845322
:101B800003F584139B0001221A60FEF713FD4FF04A
:101B90000075064695FAA5F5B5FA85F7002D14BF30
:101BA0003B46202303F01F022168012393400B4290
:101BB0007FF4E6ADFEF7FEFC801B0228EED92CE692
:101BC000FEF7F8FCC01B0228BFD926E6FEF7F2FCA0
:101BD0004FF00075064695FAA5F5B5FA85F7002D84
:101BE00014BF3B46202303F01F02216801239340CA
:101BF0000B423FF4C5ADFEF7DDFC801B0228EED999
:101C00000BE6616A0EE7616A51E700BF001002400F
:101C1000134B596801F00C02082A1A461ED101F430
:101C200070104FF4701393FAA3F3B3FA83F320FA0E
:101C300003F30C48C05CD36A0F2203F00F0392FA3F
:101C4000A2F2B2FA82F2D340074AD25CCB034ABF77
:101C5000064B074BB3FBF2F35843704703487047FA
:101C600000100240E55C0008F55C000800127A00F4
:101C700000093D00544A136803F007038B422DE925
:101C8000F04104460D462FD32268910739D4D2077C
:101C90003FD44D4A136803F00703AB4200F2818042
:101CA00022684A4D12F0040F40F08680130706D5D3
:101CB0006B68226923F4605343EAC2036B60FFF749
:101CC000A7FF6B68F02203F0F00392FAA2F2B2FAD7
:101CD00082F2D3403E4AD35CD8403E4B18600F207E
:101CE000FEF762FC00200AE0136823F007030B43B1
:101CF0001360136803F007038B42C5D00120BDE8D1
:101D0000F0813249A0684B6823F0F00303434B6035
:101D1000BDE762682D4E012A306825D14FF40033AB
:101D200093FAA3F3B3FA83F303F01F03012101FA3B
:101D300003F30342E2D0736823F003031A43726093
:101D4000FEF738FC6368012B074641F2883811D151
:101D5000736803F00C03042B9BD0FEF72BFCC01B15
:101D60004045F5D90320CAE7022A0CBF4FF00073A3
:101D70000223D5E7022B0FD1736803F00C03082B65
:101D800087D0FEF717FCC01B4045F5D9EAE7FEF700
:101D900011FCC01B4045E5D8736813F00C0FF6D159
:101DA00077E7136823F007032B431360136803F0EE
:101DB0000703AB42A2D173E76B68E16823F4E063E9
:101DC0000B436B6072E700BF00200240001002402E
:101DD0001C5D000894020020084B1868084B5B68E3
:101DE0004FF4E06203F4E06392FAA2F2B2FA82F2F4
:101DF000D340044AD35CD840704700BF940200200F
:101E0000001002402C5D0008084B1868084B5B6806
:101E10004FF4605203F4605392FAA2F2B2FA82F2E3
:101E2000D340044AD35CD840704700BF94020020DE
:101E3000001002402C5D00080F2303600B4B5A6812
:101E400002F0030242605A6802F0F00282605A68AF
:101E500002F4E062C2605B68DB0803F4E0630361E4
:101E6000034B1B6803F007030B6070470010024030
:101E70000020024003682DE9F3470446D80322D529
:101E8000744DEB69D90000F18580EB6943F0805314
:101E9000EB61EB6903F080530193019B01266E4FC8
:101EA0003B68DA0578D52B6A13F4407340F08980DB
:101EB0002B6A626823F4407313432B621EB1EB69F3
:101EC00023F08053EB612368DD0706D56149A068E4
:101ED0000A6B22F0030202430A63980606D55D49A5
:101EE000E0680A6B22F0100202430A63990306D5E8
:101EF0005849206B4A6822F4800202434A605A061D
:101F000006D5544920690A6B22F0200202430A6375
:101F10001F0406D54F4960690A6B22F04002024354
:101F20000A639E0506D54B49E0694A6822F400021F
:101F300002434A601D0606D54649A069CA6A22F4D2
:101F4000F8720243CA62D80406D54249206A0A6B75
:101F500022F4807202430A63590306D53D49606A40
:101F60000A6B22F4806202430A631A0306D53949D8
:101F7000A06A0A6B22F4006202430A6313F480131E
:101F800006D0344AE16A136B23F400530B43136306
:101F9000002013E0002682E73B6843F480733B6037
:101FA000FEF708FB80463B68DB053FF57CAFFEF79C
:101FB00001FBA0EB08006428F5D9032002B0BDE8BE
:101FC000F087626802F440729A423FF471AF234B8B
:101FD000296A4FF4803292FAA2F2B2FA82F21A44DB
:101FE0009200012717601F464FF4803292FAA2F246
:101FF000B2FA82F33B449B0021F440700022CF07E9
:102000001A6028627FF554AFFEF7D4FA4FF0020849
:10201000074698FAA8F9B9FA89FA98FAA8F3BBB171
:10202000296AB9F1000F11D05FFA8AF303F01F0398
:10203000012202FA03F30B427FF43AAFFEF7BAFA39
:1020400041F28833C01B9842E7D9B6E72023EDE779
:10205000696AE6E7001002400070004000819010BD
:10206000704700001E4A0368904210B502D0B0F1DC
:10207000804F09D14C6823F07003904243EA040377
:102080000DD0B0F1804F0AD0164A904207D002F529
:102090008062904203D002F58062904203D1CA6808
:1020A00023F4407313434A6923F08003134303600E
:1020B0008B68C3620B688362094B98420BD003F5AF
:1020C000A053984207D003F58063984203D003F5EC
:1020D0008063984201D10B6903630123436110BD02
:1020E000002C01400040014010B50446A0B190F81A
:1020F0003D3003F0FF021BB980F83C20FFF7B0FF32
:102100000223206884F83D30211DFFF7ABFF012337
:1021100084F83D30002010BD0120FCE7036A10B5B3
:1021200001248C4023EA04030362036A02FA01F1EA
:102130000B43036210BD000010B504460122006885
:10214000FFF7ECFF23680C4A93420BD002F5A05234
:10215000934207D002F58062934203D002F5806279
:10216000934203D15A6C42F400425A641A6842F016
:1021700001021A60002010BD002C014070470000D1
:1021800038B5C169036882681D6804460069024366
:10219000606902434A480A43284002431A605A6869
:1021A000E068256A22F4405202435A609868A269A6
:1021B00020F430602A4302439A60424A934214D189
:1021C000414B1B6B03F00303013B022B14D83F4A26
:1021D000B1F5004FD35C41D1082B3CD8DFE803F0C8
:1021E0000F21243B2D3B3B3B3600394A934203D021
:1021F00002F5806293425DD1B1F5004F37D1FFF710
:10220000EBFD63685A0802EB4000B0FBF3F39BB2AE
:10221000002023F00F022168C3F342031343CB6075
:1022200038BDFFF7F1FDECE76268530803F574036E
:1022300003F51053B3FBF2F3E9E7FFF7E9FC61683C
:102240004A0802EB4003B3FBF1F3E0E7626853088E
:1022500003F58033EEE701200023DAE7082B2CD8C2
:10226000DFE803F00511142B202B2B2B2300FFF7A5
:10227000B3FDD4E9002300EB5300B0FBF3F080B2D0
:10228000D0600020CCE7FFF7BFFDF2E7626853089B
:1022900003F5F40303F59053B3FBF2F3094A9BB241
:1022A000D360EEE7FFF7B4FCE3E76268530803F599
:1022B0000043F1E7B1F5004FCDD00120B0E700BFFA
:1022C000F369FFEF0038014000100240055D00088F
:1022D00000440040436ADA0710B506D50168846AF5
:1022E0004A6822F4003222434A609C0706D50168FE
:1022F000C46A4A6822F4803222434A60590706D5EC
:102300000168046B4A6822F4802222434A601A075B
:1023100006D50168446B4A6822F4004222434A60B1
:10232000DC0606D50168846B8A6822F48052224359
:102330008A60990606D50168C46B8A6822F4005247
:1023400022438A605A060FD50168046C4A6822F459
:1023500080122243B4F5801F4A6005D14A68446C5C
:1023600022F4C00222434A601B0606D50268816C33
:10237000536823F400230B43536010BD2DE9F04153
:10238000DDF8188004460E4615461F462268D369BC
:1023900036EA03030CBF01230023AB4201D0002027
:1023A00017E0B8F1FF3FF2D0B8F1000F13D1236866
:1023B0001A6822F4D0721A609A6822F001029A60B8
:1023C000202384F8693084F86A30002384F8683068
:1023D0000320BDE8F081FEF7EDF8C01B4045D5D9DC
:1023E000E5E730B50446002585B0C566FEF7E2F89E
:1023F000226812681107034616D422681268520731
:1024000009D56FF07E4200924FF4800100222046F1
:10241000FFF7B4FFA8B92023002084F8693084F8BE
:10242000680084F86A300DE06FF07E4200920390FD
:102430002A464FF400112046FFF7A0FF039B002817
:10244000DBD0032005B030BD10B5044660B390F872
:10245000693003F0FF021BB980F86820FFF78EFE99
:102460002268242384F86930136823F00103136081
:102470002046FFF785FE012816D0636A13B1204677
:10248000FFF728FF23685A6822F490425A609A683E
:1024900022F02A029A601A6842F0010220461A606D
:1024A000BDE81040FFF79DBF012010BD1549D1F8D0
:1024B000883043F47003C1F88830134B1A6842F037
:1024C00001021A605868114A02405A601A6822F0E4
:1024D000847222F480321A601A6822F480221A6010
:1024E0005A6822F4FE025A60DA6A22F00F02DA62B7
:1024F000186B074A02401A6300229A604FF000638B
:102500008B60704700ED00E0001002400CC07FF8C7
:10251000CCFC00FF10B59CB00123002805930CBF34
:102520004FF480334FF4A023069300230793022433
:102530004FF48033CDE90C4305A84FF4E0130E931C
:10254000FFF708F910B100201CB010BD0F23CDE932
:1025500000344FF48063CDE9033002902146684691
:10256000FFF788FB0028EED14FF400331B900FA833
:102570000F93FFF77FFCB0FA80F04009E4E730B535
:1025800091B00323069301230A93102300240B9395
:1025900002254FF4601306A8CDE90D5407940F935C
:1025A000FFF7D8F880B90F23CDE901354FF48063E8
:1025B000CDE904300390294601A8FFF75BFBB0FA90
:1025C00080F0400911B030BD2046FBE708B501207E
:1025D000FFF7A0FF28B9FFF7D2FF10B90148FEF7B7
:1025E0001DF908BD085D0008134A1449536803F03B
:1025F0000C03082B10B50AD0114B0B605368114A1D
:10260000C3F30313D25C0B68D3400B6010BD536857
:102610005068C00349BFD06A0B48094C00F00F0056
:10262000C3F3834348BF013003F1020348BFB4FB47
:10263000F0F04343E1E700BF0010024094020020A5
:1026400000127A001C5D000800093D00074A4FF0A7
:10265000804313601A69910707D5DA68920704D599
:102660006FF002021A61FEF7FFBD704744160020AA
:1026700000487047345D000830B589B001A903A84F
:10268000FFF7DAFBFFF7A8FB1F4B0190DA691F4C3D
:1026900042F00102DA61DA6902F001020292029A62
:1026A0001A6942F001021A611A6922F001021A61E4
:1026B000069A4FF0804323604FF0FF33E360144BE2
:1026C000FAB9B0FBF3F00138002560600F482561CE
:1026D000C4E90555A560FFF707FD0E4B0E4A9B6840
:1026E000C3F8B0200D4B4FF080521A6007482946BE
:1026F000FFF722FD2268D36823F00203D36009B0FC
:1027000030BD4000DDE700BF00100240441600204D
:1027100040420F0000ED00E04D26000800E100E01F
:1027200004480268D36823F00203D3600021FFF756
:1027300003BD00BF441600204FF08043586A704725
:10274000054B1B686FF0020258631A61DA6842F0A9
:102750000202DA60704700BF44160020064B1B6877
:102760006FF002021A615A6942F002025A61DA6895
:1027700042F00202DA60704744160020034B1A68E8
:10278000D36823F00203D360704700BF44160020D3
:10279000024B1B686FF002021A617047441600205A
:1027A00000B587B0C04B1B78002B0CBF0123002362
:1027B000DBB28DF809309DF80930002B11D0BB4BEE
:1027C0005B79002B0DD1B94B9A79B94B1A72B84B82
:1027D0001B7A002B0CBF01230023DBB21A46B34B3C
:1027E0009A71B24A9DF809305371B14B1B7A002B94
:1027F0000CBF01230023DBB28DF809309DF80930AE
:10280000002B04D0A94B93F90730002B08DD9DF86D
:102810000930002B0AD1A54B93F90730012B05D1C4
:10282000A44B03F6D4731B68A04A13609F4B93ED2F
:10283000007AA04B03F6D873D3ED007AB4EEE77AB2
:10284000F1EE10FA06DB9B4B03F6D8731B68974A30
:10285000136012E0954B93ED007A964B03F6DC7310
:10286000D3ED007AB4EEE77AF1EE10FA05D8914B89
:1028700003F6DC731B688D4A13608B4B5A888D4BB3
:1028800003F581530A331B889A4207D9894B03F514
:1028900081530A331B88ADF80A3014E0824B5A8802
:1028A000844B03F581530C331B889A4207D2814B2A
:1028B00003F581530C331B88ADF80A3003E07A4BE3
:1028C0005B88ADF80A307B4B03F5815304331B88DA
:1028D0001A46BDF80A3003FB02F307EE903AF8EE11
:1028E000677A9FED757A27EE877A724B03F58053EE
:1028F00018331B6807EE903AF8EE677ADFED6F6ADF
:1029000067EEA67A27EE277A684BD3ED007A67EE5A
:10291000277ACDED057A654B01221A72634B1B793C
:10292000002B12D0634B03F57E6393ED007ADDED4F
:10293000057A27EE277A5F4B03F6E473D3ED007A2E
:1029400067EE277A5A4BC3ED017A594B93ED017A22
:10295000574BD3ED007A77EE277ACDED037A0398C3
:1029600001F0BEFB02460B4643EC102B01F04CF885
:1029700053EC102B1046194601F0BAFE034604939F
:102980009DED040A00F08EFE0346002B06D19DED5E
:10299000040A00F065FE0346002B03D04FF000034D
:1029A000049312E0049801F09BFB02460B469FED56
:1029B0003C1B43EC102B01F0ABF853EC102B1046F2
:1029C000194601F095FE03460493DDED047AF5EE19
:1029D000C07AF1EE10FA10D5DDED047AF1EE677AE7
:1029E000FCEEE77A17EE903A9BB25B429BB21BB2C9
:1029F00007EE903AF8EEE77A0BE0DDED047AFCEEB4
:102A0000E77A17EE903A9BB21BB207EE903AF8EED7
:102A1000E77A9DED037A77EE677A254BC3ED007A6E
:102A2000244B03F5815316331A78204B1A71214B2E
:102A300003F6EC7393ED007A1D4BD3ED007A27EE8D
:102A4000277A1C4B03F57F63D3ED007A67EE277A74
:102A5000CDED037A174BD3ED097A9DED037AB4EEF1
:102A6000E77AF1EE10FA69D5039801F039FB0246D6
:102A70000B4643EC102B00F0C7FF53EC102B104615
:102A8000194601F035FE034604939DED040A00F05B
:102A9000E7FD0346002B13D04FF00003049322E020
:102AA000000000000000F040A41600208C1600205A
:102AB0009816002098020020000080390000002EA7
:102AC000049801F00DFB02460B469FEDB51B43EC4D
:102AD000102B01F01DF853EC102B1046194601F095
:102AE00007FE03460493DDED047AF5EEC07AF1EEBD
:102AF00010FA10D5DDED047AF1EE677AFCEEE77A94
:102B000017EE903A9BB25B429BB21BB207EE903A33
:102B1000F8EEE77A0BE0DDED047AFCEEE77A17EEEB
:102B2000903A9BB21BB207EE903AF8EEE77A9DED31
:102B3000037A77EE677ACDED037A78E0DDED037AFC
:102B4000F5EEC07AF1EE10FA11D5039801F0C8FA4B
:102B500002460B4643EC102B00F0D6FE53EC102B34
:102B60001046194601F0C4FD0346049310E0039893
:102B700001F0B6FA02460B4643EC102B00F044FF7E
:102B800053EC102B1046194601F0B2FD0346049396
:102B90009DED040A00F086FD0346002B06D19DED55
:102BA000040A00F05DFD0346002B03D04FF0000344
:102BB000049312E0049801F093FA02460B469FED4D
:102BC000781B43EC102B00F0A3FF53EC102B1046A6
:102BD000194601F08DFD03460493DDED047AF5EE10
:102BE000C07AF1EE10FA10D5DDED047AF1EE677AD5
:102BF000FCEEE77A17EE903A9BB25B429BB21BB2B7
:102C000007EE903AF8EEE77A0BE0DDED047AFCEEA1
:102C1000E77A17EE903A9BB21BB207EE903AF8EEC5
:102C2000E77A9DED037A77EE677ACDED037A5E4B16
:102C300003F6F473D3ED007A9DED037A67EE277AFD
:102C4000CDED037ADDED037AF5EEC07AF1EE10FA00
:102C500011D5039801F044FA02460B4643EC102BC1
:102C600000F052FE53EC102B1046194601F040FDC7
:102C70000346049310E0039801F032FA02460B4633
:102C800043EC102B00F0C0FE53EC102B10461946FD
:102C900001F02EFD034604939DED040A00F002FDB1
:102CA0000346002B06D19DED040A00F0D9FC034633
:102CB000002B03D04FF00003049312E0049801F0BE
:102CC0000FFA02460B469FED361B43EC102B00F02B
:102CD0001FFF53EC102B1046194601F009FD034667
:102CE0000493DDED047AF5EEC07AF1EE10FA0BD51F
:102CF000DDED047AF1EE677AFCEEE77A17EE903AB2
:102D00009BB25B429BB206E0DDED047AFCEEE77A13
:102D100017EE903A9BB2ADF80A30234B03F6FC73E2
:102D200093ED007ADDED057AF0EEE77A27EE277A6B
:102D30001D4B03F58053D3ED007A67EE277ACDED76
:102D4000057A194B03F580530433D3ED007A9DEDDA
:102D5000057AB4EEE77AF1EE10FACCBF0123002336
:102D6000DBB283F00103DBB2002B05D00E4B03F581
:102D7000805304331B6805930B4B03F580530833D2
:102D8000D3ED007A9DED057AB4EEE77AF1EE10FA14
:102D90000CDD054B03F5805308331B68059318E0E1
:102DA000000000000000F04098020020CE4B03F528
:102DB00080530C33D3ED007A9DED057AB4EEE77ABB
:102DC000F1EE10FA05D5C84B03F580530C331B68A0
:102DD0000593BDF80A3007EE903AF8EE677A9DED5C
:102DE000037A77EE677ACDED037ABF4B03F5805314
:102DF0001E33B3F900301A46BDF80A301344BA4AFC
:102E00000A339B0013441B680493B74B03F58053AC
:102E10001C33B3F900301A46BDF80A301344B24AE5
:102E20000A339B00134493ED007ADDED047A37EE0C
:102E3000677ADDED037A67EE277A9DED047A77EE07
:102E4000277ACDED017AA84B03F581530233B3F90C
:102E500000301A46BDF80A301344A34A0A339B00D7
:102E600013441B680493A04B03F58153B3F900305E
:102E70001A46BDF80A3013449B4A0A339B00134498
:102E800093ED007ADDED047A37EE677ADDED037AB3
:102E900067EE277A9DED047A77EE277ACDED037AF7
:102EA000914B03F5815306331A888F4B03F58153F9
:102EB00008331B889A422AD9DDED057AB1EE677A8C
:102EC000DDED037A27EE277A874B03F6F873D3ED0F
:102ED000006ADDED017A66EEA77A77EE277ACDED0E
:102EE000047A814B03F6F87393ED007ADDED037AF3
:102EF00027EE277ADDED056ADDED017A66EEA77A29
:102F000077EE277AF1EE677ACDED057A27E0764BFA
:102F100003F6F87393ED007ADDED037A27EE277A56
:102F2000DDED056ADDED017A66EEA77A77EE277AA8
:102F3000CDED047ADDED057AB1EE677ADDED037A49
:102F400027EE277A684B03F6F873D3ED006ADDEDC0
:102F5000017A66EEA77A77EE277ACDED057A634B94
:102F60001B7A002B57D0604BD3ED027A9DED057A8A
:102F700067EE277ACDED037A5B4BD3ED037A9DEDB7
:102F8000047A67EE277ACDED017A574B93ED017AFB
:102F9000DDED047A37EE277A534BD3ED047A27EE32
:102FA000277A514BD3ED057A67EE277ACDED047A77
:102FB0009DED037ADDED017A37EE677A4A4BD3ED6A
:102FC000017A37EE277A484BD3ED047A27EE277A39
:102FD000454BD3ED057A67EE277ACDED057A9FED67
:102FE000447ADDED017A37EE677ADDED037A37EE6C
:102FF000677A3D4BD3ED017A37EE277A3A4BD3ED22
:10300000047A27EE277A384BD3ED057A67EE277AD4
:10301000CDED037A08E0344B9B690493324B9B69F6
:103020000593314B9B690393049801F059F80246CC
:103030000B4643EC102B00F0E7FC53EC102B104632
:10304000194601F055FB034604939DED040A00F078
:1030500029FB0346002B06D19DED040A00F000FB7E
:103060000346002B03D04FF00003049312E00498B2
:1030700001F036F802460B469FED191B43EC102B6E
:1030800000F046FD53EC102B1046194601F030FBC2
:1030900003460493059801F023F802460B4643ECDF
:1030A000102B00F0B1FC53EC102B1046194601F028
:1030B0001FFB034605939DED050A00F0F3FA034656
:1030C000002B06D19DED050A00F0CAFA0346002B3D
:1030D00010D04FF0000305931FE000BFAFF3008056
:1030E000000000000000F041980200209816002027
:1030F00000000000059800F0F3FF02460B469FED2C
:103100007C1B43EC102B00F003FD53EC102B1046FE
:10311000194601F0EDFA03460593039800F0E0FF2D
:1031200002460B4643EC102B00F06EFC53EC102BC8
:103130001046194601F0DCFA034603939DED030A9D
:1031400000F0B0FA0346002B06D19DED030A00F013
:1031500087FA0346002B03D04FF00003039312E0DD
:10316000039800F0BDFF02460B469FED611B43EC48
:10317000102B00F0CDFC53EC102B1046194601F03B
:10318000B7FA03460393DDED047AF5EEC07AF1EE6B
:1031900010FA0AD5DDED047AF1EE677AFCEEE77AF3
:1031A00017EE903A5B421A4605E0DDED047AFCEE3C
:1031B000E77A17EE902A504B5A60DDED057AF5EE6E
:1031C000C07AF1EE10FA0AD5DDED057AF1EE677AF4
:1031D000FCEEE77A17EE903A5B421A4605E0DDED29
:1031E000057AFCEEE77A17EE902A434B9A60DDED04
:1031F000037AF5EEC07AF1EE10FA0AD5DDED037A26
:10320000F1EE677AFCEEE77A17EE903A5B421A46E7
:1032100005E0DDED037AFCEEE77A17EE902A364BF7
:10322000DA60364B03F581530E331A88334B03F5BE
:10323000815310331B889A4204D9314B1A7A2E4B92
:103240001A7003E02C4A9DF8093013702D4B93ED52
:10325000007A2A4B03F58053103393ED006A274B15
:1032600003F580531433D3ED007AC6EE276A234B5F
:10327000D3ED007A66EEA76A204B03F57D63D3EDAC
:10328000007A66EEA77A77EE277A1E4BC3ED007AB6
:103290001C4B93ED007A194B03F6D873D3ED007AEB
:1032A000B4EEE77AF1EE10FA06DB144B03F6D873AE
:1032B0001B68144A136012E0124B93ED007A0F4B17
:1032C00003F6DC73D3ED007AB4EEE77AF1EE10FA90
:1032D00005D80A4B03F6DC731B680A4A13609DF994
:1032E0000920084BDA7100BF07B05DF804FB00BF8E
:1032F000000000000000F041B016002098020020FD
:10330000981600208C16002008B5082000F064F9FB
:10331000174B03F6D4731B68164A1360154B022231
:10332000DA71134B03F5815314331A78114B5A7128
:103330000F4B03F5815313331A780E4B9A710C4BD4
:1033400003F5815312331A780B4B1A72084B03F5AD
:10335000815315331A78074B1A71054BDB69064AFE
:103360005360034B1B6A044A136000BF08BD00BFD3
:10337000980200208C1600209816002000BF70478D
:1033800008B50F4B1B785A1CD1B20D4A1170002B97
:1033900009D00C4B01221A60094B1B78013BDAB2B1
:1033A000074B1A700BE062B600BFFFF7F9F972B66F
:1033B00000BF034B1B78013BDAB2014B1A7008BD0A
:1033C000441400204014002000B583B0244B019326
:1033D000244B0093244B00221A70244B00221A70B5
:1033E00001DFFEF793F9FFF7FFF8214B1B6800227E
:1033F0001A60FFF789FF9DED010A00F0E1F91C4B0F
:103400001B681B68002B0CBF01230023DBB21A468C
:10341000164B1A7062B600BF15E0154B1B681B688F
:10342000002B14BF01230023DBB21A460E4B1A7087
:103430000D4B1B78DBB2002B0CBF01230023DBB24A
:103440001A460A4B1A70094B1B78DBB2002BE4D1E9
:10345000FFF794FF0023184603B05DF804FB00BF9C
:103460006F12833A00009042C1160020C01600205F
:103470003C5D000800B587B0402303934FF0000285
:103480004FF00003CDE90423039B202B0BD100F068
:103490001FF810EE103A184600F022FE02460B46C6
:1034A000CDE9042307E0094B019300230093DDE9F4
:1034B0000023CDE90423DDE9042343EC172BB0EE10
:1034C000470AF0EE670A07B05DF804FB0000F07FE2
:1034D00082B04FF0FF430193019B07EE903AB0EEAC
:1034E000670A02B07047000000B587B0402303931D
:1034F0004FF000024FF00003CDE90423039B202B83
:103500000BD100F01FF810EE103A184600F0E8FD5D
:1035100002460B46CDE9042307E0094B0193002343
:103520000093DDE90023CDE90423DDE9042343EC26
:10353000172BB0EE470AF0EE670A07B05DF804FB00
:103540000000F0FF82B0044B0193019B07EE903A1C
:10355000B0EE670A02B07047000080FF00B587B088
:10356000402303934FF000024FF00003CDE9042302
:10357000039B202B0BD100F01FF810EE103A1846D9
:1035800000F0AEFD02460B46CDE9042307E0094BEF
:10359000019300230093DDE90023CDE90423DDE955
:1035A000042343EC172BB0EE470AF0EE670A07B08E
:1035B0005DF804FB0000F8FF82B04FF000030193B8
:1035C000044B0193019B07EE903AB0EE670A02B0FC
:1035D000704700BF0000C0FF00B583B00190FFF747
:1035E000BDFFB0EE407AF0EE607A174B83ED007BC2
:1035F000FFF7E2FFF0EE407A144BC3ED007AFFF7DD
:1036000039FFB0EE407AF0EE607A114B83ED007B2B
:10361000FFF75EFFF0EE407A0E4BC3ED007AFFF746
:1036200063FFB0EE407AF0EE607A0B4B83ED007BE7
:10363000FFF788FFF0EE407A084BC3ED007A00BF39
:1036400003B05DF804FB00BFD8160020C8160020A8
:10365000D0160020CC160020E0160020E81600202E
:1036600082B08DED010A0D4BD3ED007A9DED017A0C
:10367000B4EE677AF1EE10FA09D0094BD3ED007A77
:103680009DED017AB4EE677AF1EE10FA01D10123D3
:1036900000E00023184602B0704700BFCC1600209F
:1036A000E816002084B08DED010A019B0393039B73
:1036B00003F0FF43B3F1FF4F06D1039BC3F316039F
:1036C000002B01D0012300E00023DBB2184604B038
:1036D0007047000082B0034600918DF807309DF9D5
:1036E0000730002B0ADB009BDAB20C499DF907304A
:1036F0001201D2B20B4483F800230BE0009BDAB234
:1037000007499DF8073003F00F03043B1201D2B2C2
:103710000B441A7600BF02B0704700BF00E100E022
:1037200000ED00E000B583B00190019B013BB3F1D7
:10373000807F01D301230FE0094A019B013B5360C5
:103740000F214FF0FF30FFF7C5FF054B00229A60B5
:10375000034B07221A600023184603B05DF804FBF0
:1037600010E000E008B5BFF34F8F00BFBFF36F8FCD
:1037700000BF0C4B1A680C4B1B689A4202D3094BD2
:1037800000221A60074B1B685A1C06490A60002B6E
:1037900005D172B600BFFFF7F3FD62B600BF00BFF0
:1037A00008BD00BFF0160020EC160020034B5B683C
:1037B000024A43F08053536000BF704700ED00E0C1
:1037C00000B585B08DED010A224B1B6807EE903ADB
:1037D000B8EE677ADDED017A67EE277AFCEEE77ADC
:1037E00017EE903A0393039BB3F1807F18D3039BAA
:1037F00007EE903AB8EE677ADFED176AC7EE267AE1
:10380000FCEEE77A17EE903A0133144A1360134B3B
:103810001B68039AB2FBF3F31846FFF783FF05E03A
:103820000E4B00221A600398FFF77CFF0C4B00221E
:103830001A600C4A0C4B1A600F216FF00400FFF75E
:1038400049FF0F216FF00100FFF744FF00BF05B0F3
:103850005DF804FB94020020FFFF7F4BEC16002074
:10386000F016002065370008F4160020EFF3008002
:1038700001B5EFF3118003B41EF0100F08BFB0EED6
:10388000400A0A48006803B488B004A006904FF0CC
:10389000807007906FF006008646704703BC804733
:1038A000BFF36F8F00DFFEE700BF0000F4160020BB
:1038B0001EF0100F08BFB0EE400A1EF0040F0CBF40
:1038C000EFF30880EFF30980816911F8020C10B161
:1038D00001280DD00BE01EF0100F0CBF1AB008B07D
:1038E00003BC80F3118803BC80F300880847FEE71F
:1038F0004EF61451CEF200010A6842F001020A604D
:103900007047F4E700BF00BF51EC100BF8B5C1F3EE
:103910000A53A3F2FF35132D10EE106A0C4632DC69
:10392000002D1EDB364F2F4101EA070303432FD042
:1039300031A3D3E9002300F075FA0022002300F040
:10394000B7FE48B1002C04DD4FF4801343FA05F5AF
:103950002C4424EA070400262346324643EC102B6D
:10396000F8BD25A3D3E9002300F05CFA0022002370
:1039700000F09EFE0028EFD0002C39DB264333D028
:10398000204C0026E8E7332D05DDB5F5806F23D008
:1039900041EC100BF8BDA3F213434FF0FF37DF40AB
:1039A0000742F5D014A3D3E9002300F03BFA00222C
:1039B000002300F07DFE0028CED0002C09DD142D60
:1039C00014D00123C5F1340503FA05F5AE1928BF5B
:1039D000E41826EA0706BFE710EE102A0B4600F0AF
:1039E00021FA41EC100BF8BD3446B5E70134F0E79D
:1039F00000264FF00044AFE79C7500883CE4377E1A
:103A0000FFFF0F000000F03F51EC100BF8B5C1F3C1
:103A10000A53A3F2FF35132D10EE106A0C4620DC7A
:103A2000002D3DDB384F2F4101EA070303431DD032
:103A300033A3D3E9002300F0F5F90022002300F0BE
:103A400037FE48B1002C04DA4FF4801343FA05F531
:103A50002C4424EA070400262346324643EC102B6C
:103A6000F8BD332D05DDB5F5806F29D041EC100B85
:103A7000F8BDA3F213434FF0FF37DF400742F5D004
:103A80001FA3D3E9002300F0CDF90022002300F0AA
:103A90000FFE0028E0D0002C23DB26EA0706DBE738
:103AA00017A3D3E9002300F0BDF90022002300F0A2
:103AB000FFFD0028D0D0002C0ADB00263446CBE7DF
:103AC00010EE102A0B4600F0ADF941EC100BF8BDDA
:103AD00024F000430D4A1E43002E18BF1446002652
:103AE000BAE7142D08D00123C5F1340503FA05F512
:103AF000AE1928BFE418D0E70134CEE7AFF3008059
:103B00009C7500883CE4377EFFFF0F000000F0BF8B
:103B1000F8B52DED028B57EC106B55EC114B00F006
:103B20003BF81C4BB0EE408AF0EE608A93F900300F
:103B3000013314D022462B462046294600F0C2FD10
:103B400068B932463B463046394600F0BBFD30B9D5
:103B5000204629460022002300F082FD30B9B0EE55
:103B6000480AF0EE680ABDEC028BF8BD00F08CFF4D
:103B700000220023212101601046194600F032FC8A
:103B800041EC180BB0EE480AF0EE680ABDEC028B6F
:103B9000F8BD00BFD012002053EC112B2DE9F047E7
:103BA00023F0004555EA020651EC100B34D0944E38
:103BB00021F00049B14588462EDC5642DFF844C268
:103BC000164345EAD676664511EE10EA24D8A94593
:103BD00011EE107A10EE10AA10EE102A1C4601F019
:103BE000004606DCC0F2BE807045C0F0BB8000F02D
:103BF000F080844B08EA0303C3B9B9F1000F40F029
:103C0000D180BAF1000F8049534613DD5B00002BD1
:103C100001F1FF31FADC0DE000F0BAFA02460B4682
:103C200000F0E0FB41EC100BBDE8F0874FEA2951B2
:103C3000A1F2FF31734B234073B9002D40F0A680F1
:103C4000BEF1000FDFF8C0C1734609DD5B00002B39
:103C50000CF1FF3CFADC03E04FEA255CACF2FF3CE0
:103C60006A4B994270DBC8F3130343F4801367482F
:103C7000844558DBC4F3130444F48014A2EB0E0013
:103C8000B1EB0C010AD11BE050EA050343D0EB0F66
:103C9000013903EB40034FEA450210D0181B97424D
:103CA00088BF00F1FF300028A2EB07054FEAD27E63
:103CB000EADA01390EEB43034FEA4202EED1D01BA0
:103CC0001C1B974288BF04F1FF34002CA4BF02469E
:103CD000234653EA020106D11DE0D10F01EB430355
:103CE0000CF1FF3C5200B3F5801FF6DB47498C45D1
:103CF00064DAA1EB0C01142972DC0CF21E40CA40FC
:103D000003FA00F043FA01F110430E433346024632
:103D100043EC102B88E73E4BF60F03EBC60696EDFF
:103D2000000BBDE8F087A0EB0C001F2823DD394C09
:103D3000B1EB0C01A4EB0C040EFA04F418BF00273D
:103D4000ACD11C1B1046C0E75A1A1F2A0DDC01F229
:103D50001E4309FA02F92AFA03F30AFA02F243EAC5
:103D6000090384E741EC100B5EE72A4B5B1A0AFA61
:103D700003F300227BE70CF21E4485400EFA00F7A5
:103D80002EFA04F040EA0504D01B79E7EB02002B81
:103D9000DFF878C07FF764AF5B00002B0CF1FF3CCD
:103DA000FADC5DE74FEAC923002B18497FF742AFE1
:103DB0005B00002B01F1FF31FADC3BE7A3F5801338
:103DC0001E430CF2FF3C46EA0C51104641EC100B2E
:103DD0002AE70F4BF60F03EBC60393ED000B23E727
:103DE0001F2907DC0CF21E40834022FA01F143EA4E
:103DF00001008BE70749A1EB0C0143FA01F085E7CD
:103E0000FFFFEF7F0000F07FEDFBFFFF02FCFFFFF5
:103E1000405D0008E2FBFFFF81F0004102E000BFCF
:103E200083F0004330B54FEA41044FEA430594EA7A
:103E3000050F08BF90EA020F1FBF54EA000C55EAB5
:103E4000020C7FEA645C7FEA655C00F0E2804FEA86
:103E50005454D4EB5555B8BF6D420CDD2C4480EA68
:103E6000020281EA030382EA000083EA010180EA98
:103E7000020281EA0303362D88BF30BD11F0004FE6
:103E80004FEA01314FF4801C4CEA113102D040421C
:103E900061EB410113F0004F4FEA03334CEA133357
:103EA00002D0524263EB430394EA050F00F0A7806F
:103EB000A4F10104D5F1200E0DDB02FA0EFC22FA6A
:103EC00005F2801841F1000103FA0EF2801843FA5E
:103ED00005F359410EE0A5F120050EF1200E012A4F
:103EE00003FA0EFC28BF4CF0020C43FA05F3C0188D
:103EF00051EBE37101F0004507D54FF0000EDCF106
:103F0000000C7EEB00006EEB0101B1F5801F1BD3AE
:103F1000B1F5001F0CD349085FEA30004FEA3C0CB2
:103F200004F101044FEA445212F5800F80F09A80A8
:103F3000BCF1004F08BF5FEA500C50F1000041EBAC
:103F4000045141EA050130BD5FEA4C0C404141EBB0
:103F50000101013C28BFB1F5801FE9D291F0000FAB
:103F600004BF01460020B1FA81F308BF2033A3F15A
:103F70000B03B3F120020CDA0C3208DD02F1140C51
:103F8000C2F10C0201FA0CF021FA02F10CE002F18C
:103F90001402D8BFC2F1200C01FA02F120FA0CFC85
:103FA000DCBF41EA0C019040E41AA2BF01EB0451CE
:103FB000294330BD6FEA04041F3C1CDA0C340EDCCC
:103FC00004F11404C4F1200220FA04F001FA02F30F
:103FD00040EA030021FA04F345EA030130BDC4F1CD
:103FE0000C04C4F1200220FA02F001FA04F340EAC2
:103FF0000300294630BD21FA04F0294630BD94F073
:10400000000F83F4801306BF81F480110134013D59
:104010004EE77FEA645C18BF7FEA655C29D094EACA
:10402000050F08BF90EA020F05D054EA000C04BF48
:104030001946104630BD91EA030F1EBF0021002033
:1040400030BD5FEA545C05D14000494128BF41F0D2
:10405000004130BD14F580043CBF01F5801130BD36
:1040600001F0004545F0FE4141F470014FF00000C1
:1040700030BD7FEA645C1ABF194610467FEA655C72
:104080001CBF0B46024650EA013406BF52EA033514
:1040900091EA030F41F4002130BD00BF90F0000F02
:1040A00004BF0021704730B54FF4806404F132043E
:1040B0004FF000054FF0000150E700BF90F0000FF7
:1040C00004BF0021704730B54FF4806404F132041E
:1040D00010F0004548BF40424FF000013EE700BFEE
:1040E00042004FEAE2014FEA31014FEA02701FBF7E
:1040F00012F07F4393F07F4F81F06051704732F0B0
:104100007F4208BF704793F07F4F04BF41F4002106
:10411000704730B54FF4607401F0004521F0004164
:104120001CE700BF50EA010208BF704730B54FF0EE
:1041300000050AE050EA010208BF704730B511F0EF
:10414000004502D5404261EB41014FF4806404F127
:1041500032045FEA915C3FF4D8AE4FF003025FEAAD
:10416000DC0C18BF03325FEADC0C18BF033202EB31
:10417000DC02C2F1200300FA03FC20FA02F001FA8B
:1041800003FE40EA0E0021FA02F11444BDE600BF2E
:1041900070B54FF0FF0C4CF4E06C1CEA11541DBFDD
:1041A0001CEA135594EA0C0F95EA0C0F00F0DEF8A8
:1041B0002C4481EA030621EA4C5123EA4C5350EA8D
:1041C000013518BF52EA033541F4801143F48013DE
:1041D00038D0A0FB02CE4FF00005E1FB02E506F06F
:1041E0000042E0FB03E54FF00006E1FB03569CF0C4
:1041F000000F18BF4EF0010EA4F1FF04B6F5007FCA
:1042000064F5407404D25FEA4E0E6D4146EB06063B
:1042100042EAC62141EA55514FEAC52040EA5E50C4
:104220004FEACE2EB4F1FD0C88BFBCF5E06F1ED86E
:10423000BEF1004F08BF5FEA500E50F1000041EBA5
:10424000045170BD06F0004646EA010140EA020052
:1042500081EA0301B4EB5C04C2BFD4EB0C0541EA74
:10426000045170BD41F480114FF0000E013C00F389
:10427000AB8014F1360FDEBF002001F0004170BDAD
:10428000C4F10004203C35DA0C341BDC04F11404C6
:10429000C4F1200500FA05F320FA04F001FA05F252
:1042A00040EA020001F0004221F0004110EBD3701F
:1042B00021FA04F642EB06015EEA430E08BF20EA4B
:1042C000D37070BDC4F10C04C4F1200500FA04F3EE
:1042D00020FA05F001FA04F240EA020001F0004180
:1042E00010EBD37041F100015EEA430E08BF20EAF3
:1042F000D37070BDC4F1200500FA05F24EEA020E3B
:1043000020FA04F301FA05F243EA020321FA04F069
:1043100001F0004121FA04F220EA020000EBD37020
:104320005EEA430E08BF20EAD37070BD94F0000F20
:104330000FD101F00046400041EB010111F4801F54
:1043400008BF013CF7D041EA060195F0000F18BF05
:10435000704703F00046520043EB030313F4801F41
:1043600008BF013DF7D043EA0603704794EA0C0FFB
:104370000CEA135518BF95EA0C0F0CD050EA410611
:1043800018BF52EA4306D1D181EA030101F000418E
:104390004FF0000070BD50EA410606BF10461946B6
:1043A00052EA430619D094EA0C0F02D150EA0136C2
:1043B00013D195EA0C0F05D152EA03361CBF104603
:1043C00019460AD181EA030101F0004141F0FE41A2
:1043D00041F470014FF0000070BD41F0FE4141F426
:1043E000780170BD70B54FF0FF0C4CF4E06C1CEA26
:1043F00011541DBF1CEA135594EA0C0F95EA0C0FDB
:1044000000F0A7F8A4EB050481EA030E52EA033595
:104410004FEA013100F088804FEA03334FF08055B6
:1044200045EA131343EA12634FEA022245EA1115E3
:1044300045EA10654FEA00260EF000419D4208BF94
:10444000964244F1FD0404F5407402D25B084FEA41
:104450003202B61A65EB03055B084FEA32024FF4ED
:1044600080104FF4002CB6EB020E75EB030E22BF4A
:10447000B61A754640EA0C005B084FEA3202B6EB0A
:10448000020E75EB030E22BFB61A754640EA5C00B9
:104490005B084FEA3202B6EB020E75EB030E22BF49
:1044A000B61A754640EA9C005B084FEA3202B6EB4A
:1044B000020E75EB030E22BFB61A754640EADC0009
:1044C00055EA060E18D04FEA051545EA16754FEA6B
:1044D00006164FEAC30343EA52734FEAC2025FEA89
:1044E0001C1CC0D111F4801F0BD141EA00014FF018
:1044F00000004FF0004CB6E711F4801F04BF0143E9
:104500000020B4F1FD0C88BFBCF5E06F3FF6AFAE04
:10451000B5EB030C04BFB6EB020C5FEA500C50F194
:10452000000041EB045170BD0EF0004E4EEA113117
:1045300014EB5C04C2BFD4EB0C0541EA045170BD1E
:1045400041F480114FF0000E013C90E645EA060E62
:104550008DE60CEA135594EA0C0F08BF95EA0C0F90
:104560003FF43BAF94EA0C0F0AD150EA01347FF4D8
:1045700034AF95EA0C0F7FF425AF104619462CE7AF
:1045800095EA0C0F06D152EA03353FF4FDAE104612
:10459000194622E750EA410618BF52EA43067FF463
:1045A000C5AE50EA41047FF40DAF52EA43057FF4F3
:1045B000EBAE12E74FF0FF3C06E000BF4FF0010CFE
:1045C00002E000BF4FF0010C4DF804CD4FEA410C62
:1045D0007FEA6C5C4FEA430C18BF7FEA6C5C1BD02F
:1045E00001B050EA410C0CBF52EA430C91EA030FB0
:1045F00002BF90EA020F0020704710F1000F91EA0D
:10460000030F58BF994208BF90422CBFD8176FEADA
:10461000E37040F0010070474FEA410C7FEA6C5CA8
:1046200002D150EA013C07D14FEA430C7FEA6C5CAF
:10463000D6D152EA033CD3D05DF8040B704700BFDB
:104640008446104662468C461946634600E000BF29
:1046500001B5FFF7B7FF002848BF10F1000F01BDFB
:104660004DF808EDFFF7F4FF0CBF012000205DF8C6
:1046700008FB00BF4DF808EDFFF7EAFF34BF01204B
:1046800000205DF808FB00BF4DF808EDFFF7E0FFE4
:1046900094BF012000205DF808FB00BF4DF808ED35
:1046A000FFF7CEFF94BF012000205DF808FB00BF9C
:1046B0004DF808EDFFF7C4FF34BF012000205DF87E
:1046C00008FB00BF4FEA410C7FEA6C5C02D150EA64
:1046D000013C0AD14FEA430C7FEA6C5C02D152EAFA
:1046E000033C02D14FF0000070474FF001007047CB
:1046F0004FEA4102B2F1E04324BFB3F5001CDCF104
:10470000FE5C0DD901F0004C4FEAC0024CEA50703B
:10471000B2F1004F40EB830008BF20F0010070476A
:1047200011F0804F21D113F13872BCBF01F000406D
:10473000704741F480114FEA5252C2F11802C2F19F
:10474000200C10FA0CF320FA02F018BF40F0010020
:104750004FEAC1234FEAD32303FA0CFC40EA0C00D2
:1047600023FA02F34FEA4303CCE77FEA625307D10F
:1047700050EA01331EBF4FF0FE4040F44000704746
:1047800001F0004040F0FE4040F40000704700BFE0
:1047900053B94AB9002908BF00281CBF4FF0FF31A8
:1047A0004FF0FF3000F06EB9ADF1080C6DE904CEAA
:1047B00000F006F8DDF804E0DDE9022304B07047FC
:1047C0002DE9F047089D04468C46002B40F083807D
:1047D0008A42174647D9B2FA82F242B1C2F12000AA
:1047E00024FA00F09140974040EA010C94404FEACF
:1047F0001748230CBCFBF8F61FFA87FE08FB16C10E
:1048000043EA014306FB0EF1994209D9FB1806F170
:10481000FF3080F01981994240F21681023E3B44FC
:104820005B1AA4B2B3FBF8F008FB103344EA03446C
:1048300000FB0EFEA64509D93C1900F1FF3380F0BC
:104840000581A64540F2028102383C4440EA064018
:10485000A4EB0E0400261DB1D4400023C5E900439B
:104860003146BDE8F08702B9FFDEB2FA82F2002AD3
:1048700050D1CB1B4FEA174E1FFA87F80126B3FB26
:10488000FEFC210C0EFB1C3341EA034108FB0CF338
:104890008B4207D979180CF1FF3002D28B4200F21B
:1048A000E9808446C91AA3B2B1FBFEF00EFB1011D9
:1048B00043EA014408FB00F8A04507D93C1900F180
:1048C000FF3302D2A04500F2D9801846A4EB0804B9
:1048D00040EA0C40BFE78B4209D9002D00F0B180BF
:1048E0000026C5E9000130463146BDE8F087B3FA3D
:1048F00083F6002E4AD18B4202D3824200F2B88066
:10490000841A61EB030101208C46002DA8D0C5E973
:10491000004CA5E7C2F1200320FA03F6974001FA04
:1049200002F04FEA174ED9403043030CB1FBFEF6BC
:104930001FFA87F80EFB161143EA014306FB08F144
:10494000994204FA02F409D9FB1806F1FF3C80F001
:104950008D80994240F28A80023E3B445B1A81B2CC
:10496000B3FBFEF00EFB103341EA034100FB08F3FA
:104970008B4207D9791800F1FF3C73D28B4271D971
:1049800002383944CB1A40EA064678E7C6F1200CD3
:1049900003FA06F422FA0CF31C4320FA0CF701FA8E
:1049A00006F34FEA144E21FA0CF11F433B0CB1FB06
:1049B000FEF91FFA84F80EFB191143EA014109FBC5
:1049C00008FA8A4502FA06F200FA06F308D96118D5
:1049D00009F1FF3048D28A4546D9A9F1020921449C
:1049E000A1EB0A01BFB2B1FBFEF00EFB101147EACA
:1049F000014700FB08F8B84507D9E71900F1FF3176
:104A00002ED2B8452CD90238274440EA0940A7EBFA
:104A10000807A0FB02894F45C64649461AD317D05E
:104A20005DB1B3EB0E0267EB010707FA0CFCF24035
:104A30004CEA0202F740C5E9002700263146BDE8EE
:104A4000F0872E4628460BE70646E9E61846FDE6BF
:104A50004345E5D2B8EB020E69EB04010138DFE70C
:104A60000846D2E760468DE78146B9E7664675E7B6
:104A700030464AE7ACF1020C394413E702383C44B3
:104A800024E700BF704700BF014B1868704700BFA4
:104A9000D412002008B5074B044613B10021AFF330
:104AA0000080054B1868836A03B198472046FCF7DD
:104AB000B3F900BF00000000B05D00088A892DE94D
:104AC000F041054610070C4658D44B68002B05DC16
:104AD0000B6C002B02DC0020BDE8F081E66A002EA2
:104AE000F9D0002312F480522F682B6032D0606D11
:104AF000A3895A0705D56368C01A636B0BB1236C91
:104B0000C01A00230246E66A216A2846B047431CC1
:104B1000A38906D129681D292CD82A4ACA40D6075C
:104B200028D500226260D9042269226004D5421C83
:104B300001D12B6803B96065616B2F600029CAD071
:104B400004F14403994202D0284600F017FA0020ED
:104B50006063C1E7216A01232846B047411CC7D1E1
:104B60002B68002BC4D01D2B01D0162B01D12F6038
:104B7000B1E7A38943F04003A381ADE70F69002F9C
:104B8000A9D093070E6808BF4B690F6018BF0023B8
:104B9000A6EB07088B60B8F1000F9CDD216AA66ABE
:104BA00043463A462846B047002806DCA38943F02E
:104BB0004003A3814FF0FF308EE70744A8EB0008C5
:104BC000E9E700BF0100402038B50B6905460C46F7
:104BD00013B90025284638BD18B183690BB900F018
:104BE00099F8144B9C421BD16C68B4F90C30002B23
:104BF000EFD0626ED00704D4990502D4A06D00F006
:104C00004CF928462146FFF759FF636EDA0705463F
:104C1000E0D4A3899B05DDD4A06D00F03FF9D9E76E
:104C2000054B9C4201D1AC68DFE7044B9C4208BFB6
:104C3000EC68DAE7705D0008905D0008505D0008E0
:104C4000014620B9044B0549186800F0E1B8044B4F
:104C50001868FFF7B9BF00BFB05D0008C94B000876
:104C6000D4120020002310B50446C0E90033C0E987
:104C70000433836081814366C281836119460822BF
:104C80005C3000F073F9054B6362054BA362054B82
:104C9000E362054B2462236310BD00BF1954000872
:104CA0003B5400087354000897540008014900F071
:104CB000AFB800BFC94B000870B54A1E6825554300
:104CC0000E4605F1740100F0A9F9044640B1002137
:104CD000C0E900160C30A06005F1680200F046F94A
:104CE000204670BD014800F0D8B800BF0017002072
:104CF000014800F0D3B800BF00170020014800F0C1
:104D0000CCB800BFFB160020014800F0C7B800BFB8
:104D1000FB16002010B50446FFF7F0FFA3691BB196
:104D2000BDE81040FFF7F0BFC4E912332365134B11
:104D3000134A1B68A262A34204BF0123A361204659
:104D400000F020F86060204600F01CF8A0602046CB
:104D500000F018F80022E06004216068FFF782FF8D
:104D6000A06801220921FFF77DFFE06802221221DD
:104D7000FFF778FF0123A361D2E700BFB05D000811
:104D8000AD4C0008F8B50746FFF7ACFF1E4B1E6898
:104D9000B36913B93046FFF7BDFF4836D6E9013491
:104DA000013B03D533680BB33668F7E7B4F90C5011
:104DB000D5B9164BE36004F15800656600F06CF855
:104DC000FFF796FFC4E90155C4E904552560A561C4
:104DD0000822294604F15C0000F0C8F8C4E90D552A
:104DE000C4E912552046F8BD6834D9E70421384695
:104DF000FFF762FF044630600028D5D1FFF778FF47
:104E00000C233B60EEE700BFB05D00080100FFFF30
:104E10002DE9F8430646884600F148040027D4E906
:104E20000195B9F1010905D52468002CF7D1384660
:104E3000BDE8F883AB89012B07D9B5F90E300133F2
:104E400003D029463046C04707436835E9E70000EC
:104E500070B50D4D0D4C641BA4100026A64209D15F
:104E60000B4D0C4C00F048FD641BA4100026A6421C
:104E700005D170BD55F8043B98470136EEE755F86B
:104E8000043B98470136F2E738130020381300201E
:104E9000381300203C130020704770477047000013
:104EA000024B0146186800F069B800BFD412002018
:104EB00001F0FF01102A2BDB10F0070F08D010F8CB
:104EC000013B013A8B422DD010F0070F42B3F6D1CF
:104ED000F0B441EA012141EA014122F007047FF0E8
:104EE00000070023F0E80256083C85EA010586EA3F
:104EF000010685FA47F5A3FA87F586FA47F6A5FA7B
:104F000087F68EB9EED1F0BC01F0FF0102F0070286
:104F100032B110F8013B013A83EA010313B1F8D131
:104F20000020704701387047002D06BF3546033812
:104F3000073815F0010F07D1013015F4807F02BF4B
:104F4000013015F4C03F0130F0BC0138704700BF9C
:104F50000A44914200F1FF3300D1704710B511F8B7
:104F6000014B03F8014F9142F9D110BD02440346B1
:104F7000934200D1704703F8011BF9E737B50029C8
:104F800048D051F8043C0190002BA1F10404B8BFB3
:104F9000E418FBF737FE204A01981368154633B929
:104FA0006360146003B0BDE83040FBF72FBEA3423E
:104FB0000BD921686218934204BF1A685B6863606A
:104FC00004BF521822602C60ECE71A465B680BB1F4
:104FD000A342FAD911685518A5420BD1246821447F
:104FE0005418A3421160DDD11C685B6853602144F2
:104FF0001160D7E702D90C230360D3E72568611954
:105000008B4204BF19685B68636004BF4919216063
:105010005460C7E703B030BD48140020F8B5CD1C7C
:1050200025F0030508350C2D38BF0C25002D06464C
:1050300001DBA94203D90C2333600020F8BDFBF744
:10504000E1FD21490A6814469CB9204F3B6823B909
:105050002146304600F0D0F938602946304600F04D
:10506000CBF9431C23D10C2333603046FBF7CEFD34
:10507000E3E723685B1B17D40B2B03D923601C4485
:10508000256004E06368A2420CBF0B6053603046A9
:10509000FBF7BCFD04F10B00231D20F00700C21A32
:1050A000CCD01B1AA350C9E722466468CCE7C41CC5
:1050B00024F00304A042E3D0211A304600F09CF90A
:1050C0000130DDD1CFE700BF481400204C14002090
:1050D0002DE9F047164699468A680B69DDF820806D
:1050E0009342B8BF1346336091F8432007460C46FD
:1050F0000AB1013333602368990642BF3368023333
:105100003360256815F0060506D104F1190AE36835
:1051100032689B1AAB4226DC94F84320131E2268A7
:1051200018BF012392062BD404F1430249463846A6
:10513000C04701301ED02368E568326803F00603DB
:10514000042B08BFAD1AA36822690CBF25EAE575D8
:1051500000259342C4BF9B1AED1800261A34B542AD
:105160001AD1002008E00123524649463846C0477C
:10517000013003D14FF0FF30BDE8F0870135C6E7BD
:10518000E1185A1C302081F84300224494F845105D
:1051900082F843100233C7E70123224649463846C6
:1051A000C0470130E6D00136D9E700002DE9FF47BE
:1051B0000C469146277E0C99782F80469A4604F13A
:1051C000430207D8622F0AD8002F00F0D880582F4A
:1051D00000F0A38004F1420684F842703AE0A7F19F
:1051E0006303152BF6D801A050F823F045520008B0
:1051F00059520008D5510008D5510008D551000872
:10520000D551000859520008D5510008D551000861
:10521000D5510008D551000865530008895200088F
:1052200047530008D5510008D5510008875300089E
:10523000D551000889520008D5510008D551000801
:105240004F5300080B681A1D1B680A6004F14206E0
:1052500084F842300123A3E0256808682E0600F197
:1052600004030AD505680B60002D03DA2D236D4277
:1052700084F843305E480A2319E015F0400F0568B2
:105280000B6018BF2DB2EFE70B682568181D08608A
:10529000280601D51D6802E06906FBD51D88544823
:1052A0006F2F0CBF08230A23002184F8431066687F
:1052B000A660002EA2BF216821F0040121600DB973
:1052C000002E4DD01646B5FBF3F103FB1157C75D19
:1052D00006F8017D2F46BB420D46F4D9082B0BD1B1
:1052E0002368DF0708D5236961689942DEBF302350
:1052F00006F8013C06F1FF36921B2261CDF800A0B2
:105300004B4603AA21464046FFF7E2FE01304CD14E
:105310004FF0FF3004B0BDE8F087354884F84570A1
:1053200023680E681F0656F8045B0E6014D5D90773
:1053300044BF43F0200323601DB9236823F02003FA
:1053400023601023B0E7236843F020032360782311
:10535000284884F84530E3E75E0648BFADB2E6E78B
:105360001646BBE70B68266860691D1D0D60350693
:105370001B6801D5186002E07106FBD51880002378
:1053800023611646BAE70B681A1D0A601E68626838
:1053900000213046FFF78CFD08B1801B6060636818
:1053A0002361002384F84330A8E723693246494645
:1053B0004046D0470130ABD023689B0713D4E06848
:1053C000039B9842B8BF1846A4E7012332464946DA
:1053D0004046D04701309BD00135E36803995B1A02
:1053E000AB42F2DCEBE7002504F11906F5E700BF5C
:1053F000B45D0008C55D000838B5064D00230446BD
:1054000008462B60FBF7E4FB431C02D12B6803B179
:10541000236038BD0417002010B50C46B1F90E10FA
:1054200000F050FA0028ABBF636DA3891B1823F46A
:105430008053ACBF6365A38110BD2DE9F0411F46C9
:105440008B89DB0505460C46164605D5B1F90E10CD
:105450000223002200F088F8A389B4F90E1023F487
:105460008053A38132463B462846BDE8F04100F018
:1054700059B810B50C46B1F90E1000F075F8431C80
:10548000A38915BF606523F4805343F48053A3813F
:1054900018BFA38110BDB1F90E1000F055B8034636
:1054A00013F8012B002AFBD1181A0138704730B5C8
:1054B000141E05469BB0184605DA8B232B604FF06F
:1054C000FF301BB030BD4FF40273ADF80C3014BF89
:1054D00004F1FF332346029305934FF6FF730091C7
:1054E0000491ADF80E3002461E9B6946284600F036
:1054F000E9F8431CBCBF8B232B60002CE1D0009B40
:1055000000221A70DDE7000007B5009313460A4633
:10551000014603480068FFF7CAFF03B05DF804FBCB
:10552000D412002038B5074D044608461146002223
:105530002A601A46FBF701FC431C02D12B6803B119
:10554000236038BD0417002038B5064D00230446FB
:1055500008462B60FBF7D4FB431C02D12B6803B138
:10556000236038BD0417002038B5074D04460846AF
:10557000114600222A601A46FBF734FC431C02D174
:105580002B6803B1236038BD04170020884210B592
:1055900001EB020402D98442234607D8431EA142EC
:1055A00008D011F8012B03F8012FF8E70244014657
:1055B0008A4200D110BD13F8014D02F8014DF7E702
:1055C000F8B5074614460E4621B9BDE8F840114625
:1055D000FFF724BD22B9FFF7D1FC25462846F8BDC8
:1055E00000F082F9A0420FD221463846FFF716FD9F
:1055F00005460028F2D031462246FFF7A9FC314685
:105600003846FFF7BBFCE9E73546E7E72DE9F04709
:105610008E689E4282460C4690461F4638D88A893C
:1056200012F4906F32D025680969A5EB010965690C
:1056300005EB450505EBD57501334B446D109D42D7
:1056400038BF1D46530531D52946FFF7E7FC06460E
:1056500050B90C23CAF80030A38943F04003A3815A
:105660004FF0FF30BDE8F08721694A46FFF770FC34
:10567000A38923F4906343F08003A38126616561CD
:105680004E44A5EB09052660A5603E46BE4200D902
:105690003E46324620684146FFF778FFA3682268FD
:1056A0009B1B3244A36022600020DBE72A46FFF701
:1056B00087FF06460028E1D121695046FFF75EFCCE
:1056C000C7E700002DE9F04F98468B891B069DB077
:1056D00007460D4614460ED50B6963B94021FFF706
:1056E0009DFC2860286120B90C233B604FF0FF30FF
:1056F000D1E040236B610023099320238DF82930EA
:10570000CDF80C803023DFF8A8818DF82A304FF0D7
:10571000010923469A4613F8012B0AB1252AF9D12B
:10572000BAEB040B0BD05B46224629463846FFF7FE
:105730006DFF013000F0AA80099A5A4409929AF844
:105740000030002B00F0A28000234FF0FF32CDE9A3
:1057500005230AF1010A049307938DF853301A9335
:105760005446052214F8011B5148FFF7A1FB049A87
:10577000D8B9D00644BF20238DF85330110744BF59
:105780002B238DF853309AF800302A2B15D0079A26
:10579000544600204FF00A0C214611F8013B303BE3
:1057A000092B4ED9B0B1079214E0A0EB080309FA17
:1057B00003F313430493A246D2E7039B191D1B680E
:1057C0000391002BBBBF5B4242F002020793079399
:1057D000B8BF049223782E2B0CD163782A2B35D1B5
:1057E000039B1A1D1B680392002BB8BF4FF0FF33B9
:1057F00002340593DFF8C8A0217803225046FFF752
:1058000057FB40B14023A0EB0A0003FA00F0049BD1
:1058100003430134049314F8011B26488DF8281023
:105820000622FFF745FB002838D0234B1BBB039B08
:10583000073323F0070308330393099B3344099389
:1058400067E70CFB02320C460120A5E70023013478
:10585000059319464FF00A0C204610F8012B303AF8
:10586000092A03D9002BC5D00591C3E70CFB012100
:1058700004460123F0E703AB00932A460F4B04A92B
:105880003846AFF30080421C0646D6D1AB895B0692
:105890003FF52CAF09981DB0BDE8F08F03AB009326
:1058A0002A46064B04A93846FFF780FCEBE700BF09
:1058B000D65D0008E05D0008000000000D560008FD
:1058C000DC5D000838B5074D044608461146002245
:1058D0002A601A46FBF75DFA431C02D12B6803B11C
:1058E000236038BD0417002051F8043C181F002B1A
:1058F000BCBF0B58C0187047F8B500BFF8BC08BC57
:105900009E467047F8B500BFF8BC08BC9E4670477D
:1059100050696E6D6170206572726F723A20777295
:105920006F6E6720706F7274206E756D6265722E77
:10593000002E2E2E0A000A52252D34643A202530DE
:10594000386C58000A53502020203A202530386CFB
:10595000580A4C522020203A202530386C580A50E2
:10596000432020203A202530386C580A7850535272
:10597000203A202530386C580A50535020203A20C5
:105980002530386C580A4D535020203A20253038A5
:105990006C58000A43505549443A202530386C5819
:1059A000000A48465352203A202530386C580A4D98
:1059B0004D4653523A202530386C580A42465352CD
:1059C000203A202530386C580A55465352203A2048
:1059D0002530386C580A44465352203A2025303836
:1059E0006C580A41465352203A202530386C5800F2
:1059F0000A4D4D4641523A202530386C58000A4233
:105A0000464152203A202530386C58000A4D6F64C8
:105A100065203A20546872656164000A50726976A4
:105A2000203A2055736572000A50726976203A2038
:105A300050726976696C65676564000A4D6F6465CC
:105A4000203A2048616E646C6572000A5374616389
:105A50006B3A20505350000A537461636B3A204DE7
:105A60005350000A2B2B204D6265644F5320466132
:105A7000756C742048616E646C6572202B2B0A0A69
:105A80004661756C74547970653A20004D656D4DB2
:105A9000616E6167654661756C740042757346613D
:105AA000756C740055736167654661756C74004868
:105AB0006172644661756C74000A0A436F6E7465A6
:105AC00078743A000A0A2D2D204D6265644F5320E8
:105AD0004661756C742048616E646C6572202D2D72
